:020000040000FA
:1000000000001E2800000000F000030E830183168C
:10001000F1000A08F2008A0183120C1C16280C1049
:100020008030AD060530AD1F0F30AD048316720869
:100030008A00710E8300F00E700E09008312031304
:100040008501860187018316FF30850086008700C1
:1000500006309F00051005110D1698016400C5308B
:1000600081000C14C330920083129010101290166D
:100070008E018F0110140C100B178B177F3092001C
:1000800091018C10A001AD01A0152015052381263A
:100090008A1500208A11851C6A28D0229A21851C85
:1000A0006A28A014D022C424851C6A28D0221021DA
:1000B0000511A014E222851C6A28A014D02239223E
:1000C000851C6A28D0225023851C6A288A15EC20BA
:1000D0008A114B288B136F208B171E235A28051566
:1000E000AD200511003A031D080024082102031C5D
:1000F000203E1E3C031C0800210884002A088000C2
:1001000021084F3C031D87283030A1000800A10AB8
:10011000080017301523AA0103100830AF00A01300
:1001200020108518AC2800009528193015231930A7
:10013000152300000310AA0C851CA0288030A228DB
:1001400000300000AA07AF0B95281A30152319308C
:1001500015230000851800340134053015230000F4
:10016000AA010830AF00A0132010A5018518A5171B
:1001700004301A2300308518803025060319CC2856
:1001800003301A23003085188030A5002508003A76
:10019000031D0B290000D02803301A230000C628B5
:1001A0001330152312301523A5018518A517043027
:1001B0001A2300308518803025060319EC280330F7
:1001C0001A23003085188030A5000310AA0C2508DA
:1001D000AA07AF0BD028F02803301A230000E52827
:1001E000123015231230152300000000A5018518D8
:1001F000A51704301A23003085188030250603190E
:100200000C2903301A23003085188030A5002508FA
:10021000803A03190034013403301A2300000729FF
:10022000A01E0800A0190800A01F08002208A500B1
:100230002808A600851C0800A01305158B132208AA
:1002400084000008AB006821003A031D5629000015
:1002500022086F3C03192F290000A20A32295030CE
:10026000A2000000A80B1F29A0128B1725088400EC
:100270000008A800210884002808800021084F3CBD
:10028000031D45293030A1004629A10A2508840014
:1002900000308000A60B4D29080025086F3C03198B
:1002A0005329A50A36295030A500362905148101A5
:1002B0008316C43081008B1783122508A2002608FC
:1002C000A8008B300102031C6129201005100800D2
:1002D00005141A3015238518013419301523000030
:1002E0000830AF002B18822900000514193015239F
:1002F000851801341930152300000310AB0CAF0B27
:1003000072298F29051019301523851C01341930E5
:10031000152300000310AB0CAF0B72298F290000CE
:100320000000051017301523851C0134000016301D
:1003300015230034A01A080022082302031C203EC3
:1003400003190800A70022088400851C0800801BF0
:10035000B729800104086F3C0319B029840AB22927
:1003600050308400A70BA5292308A2000800040828
:10037000A200001BC329801AC0290230A800DA2974
:100380000430A800DA29801AC8290630A800DA2922
:100390002708013C0318080004086F3C0319F929D9
:1003A000840A0008A800023C0318EE292808103C23
:1003B000031CEE29851C08002808AF001422003E0B
:1003C00003190800851C08002808AF00AF03FC21B2
:1003D000003A0319F029023A031908002A220800FA
:1003E00024082102031C203E2807183C0318A016ED
:1003F000080050308400D129220884000008AB0096
:10040000000004086F3C0319112A840A0008AB0697
:10041000851C0234AF0B012A2B08FF3A0319003464
:10042000013450308400062A220884002308040284
:10043000031D1B2A003404086F3C0319272A840A71
:10044000801B0134851C0034AF0B162A0134503058
:100450008400202A220884000030800004086F3CB9
:100460000319362AA20A0030A80008005030A20062
:10047000332A201A080024082102031C203E0319F5
:100480000800A70024088400851C0800801B562A49
:10049000800104084F3C03194F2A840A512A303046
:1004A0008400A70B442A2108A40008000408A40023
:1004B000001B622A801A5F2A0230A900792A0430C0
:1004C000A900792A801A672A0630A900792A270804
:1004D000013C0318080004084F3C0319912A840AC0
:1004E0000008A900023C03188D2A2908103C031CAF
:1004F0008D2A851C08002908AF00AC22003E031994
:100500000800851C08002908AF00AF039422003AB8
:1005100003198F2A023A03190800C1220800201685
:10052000080030308400702A24088400000800008D
:10053000AC0004084F3C0319A92A840A0008AC0641
:10054000851C0234AF0B992A2C08FF3A031900349A
:100550000134303084009E2A2408840021080402DB
:100560000319003404084F3C0319BE2A840A801B77
:100570000134851C0034AF0BAE2A013430308400C6
:10058000B72A240884000030800004084F3C031977
:10059000CD2AA40A0030A90008003030A400CA2ADD
:1005A000A01B0800201CDB2ABA300102031C080033
:1005B0002010A017080081018316C5308100831226
:1005C00020140800A019EE2AAD1C0800AD10A01CD4
:1005D000EB2AA0100800A015201508002D1C08000B
:1005E0002D10201DF52AA01C08002019002BF30B4C
:1005F0000800A011851D08008A1521238A11080012
:1006000020110430F300052308002012A0125030FE
:10061000A300A2003030A100A400840080010408DF
:100620006F3C03190800840A0E2B1A2300001230B5
:100630001A230800AE00AE0B1B2B08001230A500D9
:10064000000005301A23851C0800A50B212B08008B
:1006500023086F3C031D302B5030A300840008009A
:10066000A30A840A080024084F3C031D3B2B3030AA
:10067000A40084000800A40A840A080004084F3C6F
:10068000031D452B303084000800840A080025082B
:10069000A4008400003080003323A90B4A2B0800FB
:1006A000201E080024088400A5000008F600B23CC3
:1006B000031D5C2B0C26872B0008B03C031D622B0E
:1006C0003426872B0008E53C031D762B3E233E2372
:1006D0003E230130F100232400087202031D8A2BFF
:1006E0003E230008013C03193024872BF81D802B82
:1006F0000008853C0319922B0008823C0319922BB9
:100700000008833C031D872B8316B31583124723F0
:10071000201208000008031D872B3E238316331682
:100720008312742B83168030981C942B83129900AB
:100730007D30F100232472088316981C9D2B8312B0
:100740009900872BAC01F901FA0123088400E530F8
:100750008000AC06282310308000AC0628237208E5
:10076000F4000130F100232472088000AC06740804
:10077000F200282350308000AC062823013080008E
:10078000AC0628237908043E8000AC0628237608AE
:100790008000AC06282377088000AC06282314309C
:1007A0008000AC0628237B308000AC0628237A0822
:1007B000FC1B013EFD1B023EFE1B043EFF1B083ED0
:1007C0008000AC062823FC137C088000AC0628239C
:1007D000FD137D088000AC062823FE137E088000F0
:1007E000AC062823FF137F088000AC062823AC0941
:1007F0002C088000282308007108031783128D003D
:100800000313720883160C10031783128C008316CF
:100810008C130C158B1355308D00AA308D008C1461
:1008200063000C11031383120D1283160C14831230
:100830008B170408F4007208F50081267408840000
:100840007508F20008007108031783128D008316E3
:100850008C130C1483120C0803138312F20008008B
:100860003E230008F9003E230008F600013C031D6A
:100870006C2C3E230008F7003E233E230008F919A4
:10088000803EFF008316331A562C83123E233E23EC
:100890000230F1002324FC0000087202031DC02C6A
:1008A00002307702031D562C7F08FC008312770864
:1008B000F100F708031D642C7F1C642C2324FF0027
:1008C0008A1500208A11672C7F08F200FC23FB01A7
:1008D000FD01FE01A223C02C0008023C031D902C48
:1008E0003E230008F7003E233E233E233E23FB0128
:1008F0000230F1002324FC00000872020319842C4A
:100900000008031DC02C7B147708F1002324FD0090
:10091000F10A2324FE00F10A2324FF00A223C02CA5
:100920000008033C031DA72C3E233E233E23023038
:10093000F1002324FB00000872020319A22C000816
:10094000031DC02C8A155B238A11A223C02C00082A
:10095000043C031DC02C3E233E233E230230F10005
:100960002324FB00000872020319B92C0008031DA0
:10097000C02C8A15F5230D241E242F248A11A223AE
:1009800083163312831208008C1C08008C10A01AE6
:1009900008008316A0308400B0000330B100831239
:1009A0000030861B013E2025851C0800061B013EE9
:1009B0002025851C0800861A013E2025851C08007C
:1009C000061A013E2025851C08000619013E202537
:1009D000851C08008618013E2025851C0800061885
:1009E000013E2025851C0800871B013E2025851C13
:1009F0000800071B013E2025851C0800871A013EC0
:100A00002025851C0800071A013E2025851C0800AA
:100A10008719013E2025851C08000719013E202565
:100A2000851C08008718013E2025851C0800071832
:100A3000013E2025851C0800851A013E202508005E
:100A40008316801B3D2D013C03192D2D0830000518
:100A50000319342DB31045253D2D08300005031D25
:100A6000342DB31445253D2D0310840D841780309B
:100A700080003008840008308006840AB00AB10A79
:100A8000B10AB10A8312003008000310840D8417E4
:100A90000008F300FF3C0319832D800A300884000E
:100AA000001C612D001F572DB318612D592DB31C4B
:100AB000612D0019612D7308FE3C031D0800801490
:100AC0006A2D7308863C031D080000196A2D801CDE
:100AD0007B2D80100008B200321F712DB318782DC5
:100AE000732DB31C782D321A772D3216782D3212D1
:100AF000320880008625300884000310840D803081
:100B00008407FF308000300884000800331131086A
:100B10008312F1002324AC0123088400B230721E3A
:100B2000942DF21D982D9F2DF21D9E2DB0309F2DDE
:100B3000F21E9E2D8316B31808008312B130800078
:100B4000AC0628237610721A76148316B10A31087F
:100B50008312F100232472088000AC062823831638
:100B6000B10A31088312F100232472088316B21EE1
:100B7000BE2D8312F818CD2D76148316B219E02DF0
:100B800083127618C52D203EE02D83163315321BB7
:100B9000CB2DF03EE02D103EE02D8316321FD32DDD
:100BA000B31CDC2DD52DB318DC2DDF39321ADA2D2C
:100BB0001038E02D3038E02D3315CF39321E203873
:100BC00083127F398000AC062823AC092C088000F2
:100BD000282383163319082E31082E3E8312F10084
:100BE0002324F21F082EAC0172088000AC062823D3
:100BF000F10A232472088000AC062823F10A23247A
:100C000072088000AC062823AC092C088000282339
:100C10008316B103B1030800332300088316BE0016
:100C20008312332300088316BF00A030BD00C030FC
:100C3000840000083E02031D2B2E840A00083F0298
:100C4000031D242E9B272C2E0008103E3F02031D5F
:100C50002C2E37272C2E840A840ABD0A0408E03C77
:100C6000031D192E83120800332300088316BE00CB
:100C70008312332300088316BF00A030BD00C030AC
:100C8000840000083E02031D712E840A00083F0202
:100C9000031D532E8312F81D502E8A1539248A11F4
:100CA00083169B27722E00080408B8003D088400B4
:100CB000801D5F2E380884000008103E652E38081D
:100CC00084000008801A7F2E203E3F02031D722EF2
:100CD0008312F81D6E2E8A1539248A118316372740
:100CE000722E840A840ABD0A0408E03C031D412ECA
:100CF000331C7D2E8A15F2228A1183120800E03EF1
:100D0000652E83160330B000A030840030088312B3
:100D1000F1002324F21B8E2EF21172127208831638
:100D20008000840AB00AB00AB00A0408B03C031D6F
:100D3000862E0330B000C030840030088312F100EA
:100D4000232472088316B200B21BB22E3210321A5C
:100D50003214FF308000840A8000840AB00AB00A8E
:100D6000B00AC52EB00A30088312F100232472089D
:100D700083168000840AB00A30088312F10023240D
:100D8000720883168000840AB00A0408E03C031D40
:100D90009D2E83120030F10023247208F800831680
:100DA000F039B700B70E0310370D073EB7008312B6
:100DB000080000000000000000000000000000002B
:100DC0000000000000000000000000000000000023
:100DD0000000000000000000000000000000000013
:100DE0000000000000000000000000000000000003
:100DF00000000000000000000000000000000000F3
:100E000000000000000000000000000000000000E2
:100E100000000000000000000000000000000000D2
:100E200000000000000000000000000000000000C2
:100E300000000000000000000000000000000000B2
:100E400000000000000000000000000000000000A2
:100E50000000000000000000000000000000000092
:100E60000000000000000000000000000000040876
:100E7000B2003D0884003310801A3314001F4C2F39
:100E8000452F831632088400FC2F8312F61C412F55
:100E9000831632088400502F8312F61C482F412FEE
:100EA0003D080F39B2003207320732070A158A149B
:100EB0000A1483128207861783163514FC2F06172F
:100EC0008316B514FC2F861683163515FC2F0616CF
:100ED0008316B515FC2F061583163516FC2F8614C0
:100EE0008316B516FC2F061483163517FC2F8717AB
:100EF0008316B517FC2F071783163614FC2F871699
:100F00008316B614FC2F071683163615FC2F87158B
:100F10008316B615FC2F071583163616FC2F87147B
:100F20008316B616FC2F071483163617FC2F85166A
:100F30008316B617FC2F0408B2003D088400001F7A
:100F4000AD2FA62F831632088400FC2F8312F61CC7
:100F5000A22F831632088400B12F8312F61CA92F0A
:100F6000A22F3D080F39B2003207320732070A15A7
:100F70008A140A1483128207861383163510FC2FF5
:100F800006138316B510FC2F861283163511FC2F1D
:100F900006128316B511FC2F061183163512FC2F8D
:100FA00086108316B512FC2F061083163513FC2FFE
:100FB00087138316B513FC2F071383163610FC2FE7
:100FC00087128316B610FC2F071283163611FC2FDA
:100FD00087118316B611FC2F071183163612FC2FCA
:100FE00087108316B612FC2F071083163613FC2FBA
:100FF00085128316B613FC2F0A118A100A100800F6
:101000008512860187018316FF30851686008700CA
:101010000030B500B600A0308400801F1928861368
:101020008312001C17288617831635141928861377
:101030008316840A801F262806138312001C242886
:1010400006178316B514262806138316840A801FF4
:10105000332886128312001C312886168316351514
:10106000332886128316840A801F402806128312B2
:10107000001C3E2806168316B51540280612831656
:10108000840A801F4D2806118312001C4B28061568
:10109000831635164D2806118316840A801F5A2898
:1010A00086108312001C582886148316B5165A28F9
:1010B00086108316840A801F672806108312001C7E
:1010C0006528061483163517672806108316840AC8
:1010D000801F74288713001C7228831287178316B9
:1010E000B517742887138316840A801F8128071375
:1010F0008312001C7F2807178316361481280713D4
:101100008316840A8312F8199128801F9128831668
:1011100087128312001C902887168316B614912814
:1011200087128316840A801F9F2807128312001CCF
:101130009D280716831636159F2807128316840AE2
:10114000801FAC2887118312001CAA2887158316DC
:10115000B615AC2887118316840A801FB928071199
:101160008312001CB728071583163616B9280711F5
:101170008316840A801FC62887108312001CC42887
:1011800087148316B616C62887108316840A801F14
:10119000D32807108312001CD12807148316361792
:1011A000D32807108316840A801FDF288512831234
:1011B000001CDE2885168316B617DF2885128312D9
:1011C000F81DEB28981783161812981618158130F9
:1011D00099008312181608002D1D08002D11831682
:1011E000030134020319CD290130340203195F2AA7
:1011F000B40A37083402031D00290030B4006B29FB
:101200003703340203190A29023037023402031962
:101210001E2BCB29A0308400001E1629351C162950
:101220008312861F15298613162986178316840AAA
:10123000001E2229B51C22298312061F212906130C
:10124000222906178316840A001E2E29351D2E29F1
:101250008312861E2D2986122E2986168316840A4D
:10126000001E3A29B51D3A298312061E3929061295
:101270003A2906168316840A001E4629351E462979
:101280008312061D45290611462906158316840A70
:10129000001E5229B51E52298312861C5129861020
:1012A000522986148316840A001E5E29351F5E2982
:1012B0008312061C5D2906105E2906148316840A13
:1012C000001ECB29B51FCB298312871F69298713DD
:1012D000CB298717CB29A8308400001E7729361C1C
:1012E00077298312071F7629071377290717831693
:1012F000840A001E8329B61C83298312871E822933
:101300008712832987168316840A001E8F29361DAB
:101310008F298312071E8E2907128F29071683161D
:10132000840A001E9B29B61D9B298312871D9A29BA
:1013300087119B2987158316840A001EA729361E4C
:10134000A7298312071DA6290711A72907158316A8
:10135000840A001EB329B61EB3298312871CB22942
:101360008710B32987148316840A001EBF29361FED
:10137000BF298312071CBE290710BF290714831633
:10138000840A001ECB29B61FCB298312851ECA29C9
:101390008512CB29851683120800B40AA030840078
:1013A000801FE029001DE0298312861FE029831693
:1013B000391CDF298312861383163910E02939146A
:1013C0008316840A801FF229001DF2298312061F4A
:1013D000F2298316B91CF129831206138316B9105A
:1013E000F229B9148316840A801F042A001D042AD6
:1013F0008312861E042A8316391D032A831286123D
:1014000083163911042A39158316840A801F162A77
:10141000001D162A8312061E162A8316B91D152AC8
:10142000831206128316B911162AB9158316840A77
:10143000801F282A001D282A8312061D282A8316A9
:10144000391E272A8312061183163912282A3916C3
:101450008316840A801F3A2A001D3A2A8312861CAA
:101460003A2A8316B91E392A831286108316B912B6
:101470003A2AB9168316840A801F4C2A001D4C2A6A
:101480008312061C4C2A8316391F4B2A831206101E
:10149000831639134C2A39178316840A801FF02AC1
:1014A000001DF02A8312871FF02A8316B91F5D2AB8
:1014B000831287138316B913F02AB917F02AB40AD6
:1014C000A8308400801F722A001D722A8312071F11
:1014D000722A83163A1C712A8312071383163A1054
:1014E000722A3A148316840A801F842A001D842AD3
:1014F0008312871E842A8316BA1C832A83128712BA
:101500008316BA10842ABA148316840A801F962A76
:10151000001D962A8312071E962A83163A1D952AC5
:101520008312071283163A11962A3A158316840AF3
:10153000801FA82A001DA82A8312871DA82A8316A7
:10154000BA1DA72A831287118316BA11A82ABA15C1
:101550008316840A801FBA2A001DBA2A8312071D27
:10156000BA2A83163A1EB92A8312071183163A1231
:10157000BA2A3A168316840A801FCC2A001DCC2A68
:101580008312871CCC2A8316BA1ECB2A831287109B
:101590008316BA12CC2ABA168316840A801FDE2A52
:1015A000001DDE2A8312071CDE2A83163A1FDD2A5D
:1015B0008312071083163A13DE2A3A178316840A19
:1015C000801FF02A001DF02A8312851EF02A831640
:1015D000BA1FEF2A831285128316BA13F02ABA179C
:1015E0008312080083160130BE06A030BD00C03053
:1015F000840000083E02031D112B840A00083F02EC
:10160000031D062B8A119B278A15122B0008801AAE
:101610001C2B203E3F02031D122B8A119B278A158B
:10162000122B840A840ABD0A0408E03C031DF92A2F
:10163000192B331083120800E03E0A2BB31DCB296F
:10164000B3118316A0308400801B282B83304A23DB
:10165000840A0408A43C031D242B801B312B8230F8
:101660004A23840A0408A83C031D2D2B801B3A2B17
:1016700081304A23840A0408AC3C031D362B801BAE
:10168000432B80304A23840A0408B03C031D3F2BBF
:1016900083120800B8000408F4000310840D8417B6
:1016A00038088000740884000008001D023A801A7F
:1016B000103A800008003E233E233E230008FA0033
:1016C0003E230008FC007A18FC173E230008FD00AA
:1016D000FA18FD173E230008FE007A19FE173E2374
:1016E0000008FF00FA19FF17FC1F7C2BFD1F792B48
:1016F0007B2B86137C2B86177C1F842B7D1F812BD5
:10170000832B0613842B0617FC1E8C2BFD1E892BA6
:101710008B2B86128C2B86167C1E942B7D1E912B78
:10172000932B0612942B0616FC1D9C2BFD1D992B4A
:101730009B2B06119C2B06157C1DA42B7D1DA12B1C
:10174000A32B8610A42B8614FC1CAC2BFD1CA92BF0
:10175000AB2B0610AC2B06147C1CB42B7D1CB12BC0
:10176000B32B8713B42B8717FE1FBC2BFF1FB92B7E
:10177000BB2B0713BC2B07177E1FC42B7F1FC12B4E
:10178000C32B8712C42B8716FE1ECC2BFF1EC92B22
:10179000CB2B0712CC2B07167E1ED42B7F1ED12BF2
:1017A000D32B8711D42B8715FE1DDC2BFF1DD92BC6
:1017B000DB2B0711DC2B07157E1DE42B7F1DE12B96
:1017C000E32B8710E42B8714FE1CEC2BFF1CE92B6A
:1017D000EB2B0710EC2B07147E1CF42B7F1CF12B3A
:1017E000F32B8512F42B8516080083160608831246
:1017F000FC000739FD00FD0D7C08F039FC007D0878
:10180000FC078316070883128039031D082C0A2C55
:101810007C140B2C7C10FC0908000608FD0007391D
:10182000FE00FE0D7D08F039FD007E08FD07871FD4
:101830001A2C1C2C7D101D2C7D1408008316070803
:101840008312FE00FE0D8316050883122039031D46
:101850002A2C2C2C7E142D2C7E10FE090800070843
:10186000FF00FF0D851E352C372C7F10382C7F1480
:10187000080083163D080C390319712C0C3C031920
:10188000712C03103D0D3D07B80085303802B800BB
:10189000031783128D0083168C130C1483120C080B
:1018A000031383120339F200720E83163D071C3EA8
:1018B0000C19083E981C5A2C83129900831602308A
:1018C0003802BF1A013E031783128D0083168C1352
:1018D0000C1483120C0803138316981C6D2C8312AE
:0618E000990083120800CC
:084000000000010004000800AB
:02400E00F23F7F
:10420000000051000100000000000000000000005C
:10421000000000000000000000000000000000009E
:10422000000000000000000000000000000000008E
:10423000000000000000000000000000000000007E
:10424000000000000000000000000000000000006E
:10425000000000000000000000000000000000005E
:10426000000000000000000000000000000000004E
:10427000000000000000000000000000000000003E
:10428000000000000000000000000000000000002E
:10429000000000000000000000000000000000001E
:1042A000000000000000000000000000000000000E
:1042B00000000000000000000000000000000000FE
:1042C000000000000000FF00FF0001007F00000070
:1042D00001007F00000001007F00000001007F005E
:1042E000000001007F00000001007F0000000100CD
:1042F0007F00000001007F000000010000000000BE
:00000001FF
